:100000000C9462000C948A000C948A000C948A0070
:100010000C948A000C948A000C948A000C948A0038
:100020000C948A000C948A000C948A000C948A0028
:100030000C948A000C948A000C948A000C948A0018
:100040000C9471020C948A000C943F020C941902D7
:100050000C948A000C948A000C948A000C948A00F8
:100060000C948A000C948A000000000024002700F1
:100070002A000000000023002600290000000000E4
:10008000250028002B0004040404040404040202D4
:100090000202020203030303030301020408102007
:1000A0004080010204081020010204081020000012
:1000B0000008000201000003040700000000000027
:1000C00000001E0411241FBECFEFD8E0DEBFCDBF5D
:1000D00011E0A0E0B1E0E6EAF8E002C005900D9280
:1000E000A635B107D9F721E0A6E5B1E001C01D9220
:1000F000AF3FB207E1F710E0C2E6D0E004C02197BD
:10010000FE010E944B04C136D107C9F70E94BB0211
:100110000C9451040C940000AF92BF92CF92DF92E6
:10012000EF92FF920F931F93CF93DF936C017B01AC
:100130008B01040F151FEB015E01AE18BF08C0173D
:10014000D10759F06991D601ED91FC910190F081B0
:10015000E02DC6010995892B79F7C501DF91CF9173
:100160001F910F91FF90EF90DF90CF90BF90AF90D5
:100170000895FC01538D448D252F30E0842F90E0AD
:10018000821B930B541710F0CF9608950197089592
:10019000FC01918D828D981761F0A28DAE0FBF2F5B
:1001A000B11D5D968C91928D9F5F9F73928F90E0B1
:1001B00008958FEF9FEF0895FC01918D828D981720
:1001C00031F0828DE80FF11D858D90E008958FEF5D
:1001D0009FEF0895FC01918D228D892F90E0805C26
:1001E0009F4F821B91098F739927089582E691E0B2
:1001F0000E94EA0021E0892B09F420E0822F089573
:1002000080E090E0892B29F00E94F60081110C9487
:1002100000000895FC01A48DA80FB92FB11DA35AA9
:10022000BF4F2C91848D90E001968F739927848F16
:10023000A689B7892C93A089B1898C918370806439
:100240008C93938D848D981306C00288F389E02DDA
:1002500080818F7D80830895EF92FF920F931F938B
:10026000CF93DF93EC0181E0888F9B8D8C8D981369
:100270001AC0E889F989808185FF15C09FB7F89475
:10028000EE89FF896083E889F989808183708064C1
:1002900080839FBF81E090E0DF91CF911F910F910C
:1002A000FF90EF900895F62E0B8D10E00F5F1F4F1B
:1002B0000F731127E02E8C8D8E110CC00FB607FC2A
:1002C000FACFE889F989808185FFF5CFCE010E94B8
:1002D0000A01F1CFEB8DEC0FFD2FF11DE35AFF4F1B
:1002E000F0829FB7F8940B8FEA89FB898081806246
:1002F000CFCFCF93DF93EC01888D8823B9F0AA8903
:10030000BB89E889F9898C9185FD03C0808186FDD0
:100310000DC00FB607FCF7CF8C9185FFF2CF80811F
:1003200085FFEDCFCE010E940A01E9CFDF91CF9189
:100330000895833081F028F4813099F08230A9F05B
:1003400008958730A9F08830C9F08430B1F48091E5
:1003500080008F7D03C0809180008F778093800024
:10036000089584B58F7784BD089584B58F7DFBCFC4
:100370008091B0008F778093B00008958091B00095
:100380008F7DF9CF3FB7F89480915B0190915C012C
:10039000A0915D01B0915E0126B5A89B05C02F3FDD
:1003A00019F00196A11DB11D3FBFBA2FA92F982F9B
:1003B0008827BC01CD01620F711D811D911D42E096
:1003C000660F771F881F991F4A95D1F70895FC0182
:1003D00001900020E9F73197AF01481B590BBC0190
:1003E00082E691E00C948C000F931F93CF93DF93E0
:1003F000CDB7DEB7A1970FB6F894DEBF0FBECDBF65
:1004000019A2805D88A3CE0180960E94E7018C012D
:1004100082E191E00E94E701800F911FA1960FB643
:10042000F894DEBF0FBECDBFDF91CF911F910F912A
:1004300008951F920F920FB60F9211242F933F939E
:100440004F935F936F937F938F939F93AF93BF93DC
:10045000EF93FF9382E691E00E940A01FF91EF91F2
:10046000BF91AF919F918F917F916F915F914F91CC
:100470003F912F910F900FBE0F901F9018951F92D4
:100480000F920FB60F9211242F938F939F93EF9398
:10049000FF93E0917201F09173018081E091780106
:1004A000F091790182FD1BC0908180917B018F5F6B
:1004B0008F7320917C01821741F0E0917B01F0E085
:1004C000EE59FE4F958F80937B01FF91EF919F91A5
:1004D0008F912F910F900FBE0F901F9018958081D4
:1004E000F4CF1F920F920FB60F9211242F933F93C8
:1004F0008F939F93AF93BF93809157019091580131
:10050000A0915901B0915A013091560123E0230F77
:100510002D3758F50196A11DB11D209356018093EA
:10052000570190935801A0935901B0935A018091BB
:100530005B0190915C01A0915D01B0915E0101961B
:10054000A11DB11D80935B0190935C01A0935D019F
:10055000B0935E01BF91AF919F918F913F912F9189
:100560000F900FBE0F901F90189526E8230F02964C
:10057000A11DB11DD2CF789484B5826084BD84B5AD
:10058000816084BD85B5826085BD85B5816085BD8E
:1005900080916E00816080936E0010928100809146
:1005A00081008260809381008091810081608093CE
:1005B0008100809180008160809380008091B100F3
:1005C00084608093B1008091B00081608093B0001E
:1005D00080917A00846080937A0080917A008260B2
:1005E00080937A0080917A00816080937A00809174
:1005F0007A00806880937A001092C100CCE9D0E044
:10060000FE01249108E810E0F8018491882399F014
:1006100090E0880F991FFC01E859FF4FA591B49114
:10062000FC01E458FF4F859194918FB7F8949C9109
:10063000292B2C938FBF5DE9252E50E0352EF1013B
:10064000249169E8862E60E0962EF4018491882337
:10065000C9F090E0880F991FFC01E859FF4FA59160
:10066000B491FC01E458FF4F459154913FB7F89481
:100670009C91822F809598239C93FA0190818923E5
:1006800080833FBFE0917201F091730182E080832B
:10069000E0916E01F0916F011082E0917001F09194
:1006A00071018FEC808310927A01E0917601F091D4
:1006B000770186E08083E0917401F091750180817B
:1006C00080618083E0917401F09175018081886080
:1006D0008083E0917401F09175018081806880834E
:1006E000E0917401F091750180818F7D808330E00D
:1006F000A32E30E0B32EE1EBF0E08491F101F49011
:10070000F401E490E11006C010926101F1E0F09371
:10071000600120C081110E949901EE2DF0E0EE0FE2
:10072000FF1FEE58FF4FA591B4918C91F82281E004
:1007300009F480E080936101FF2041F38091600122
:10074000882341F080915F01F1E08F2780935F0162
:1007500010926001E0EBF0E08491FE01F490F8016A
:10076000D490DD20B1F0E0905F0181110E949901E9
:10077000ED2DF0E0EE0FFF1FE458FF4FA591B4916F
:100780008FB7F8949C91E11057C0F094F922FC9235
:100790008FBF85E191E00E94E70180915F0190E0C9
:1007A0000E94F40180E291E00E94E70180916001E3
:1007B00090E00E94F40189E291E00E94E7018091BB
:1007C000610190E00E94F40180E391E00E94E70162
:1007D00082E191E00E94E7010E94C2012B013C01ED
:1007E0008AE0C82ED12CE12CF12C0E94C2016419A0
:1007F000750986099709683E734081059105A8F33C
:10080000F1E0CF1AD108E108F10828EE420E23E00A
:10081000521E611C711CC114D104E104F10429F7BA
:10082000A114B10409F467CF0E94F600882309F4EB
:1008300062CF0E9400005FCFF92AA9CFE2E6F1E083
:100840001382128288EE93E0A0E0B0E08483958367
:10085000A683B78384E091E09183808385EC90E068
:100860009587848784EC90E09787868780EC90E07A
:10087000918B808B81EC90E0938B828B82EC90E06B
:10088000958B848B86EC90E0978B868B118E128EE5
:10089000138E148E0895EE0FFF1F0590F491E02D36
:0608A0000994F894FFCF5B
:1008A600000000002C018C00B9007901EA00C800A4
:1008B600DC000D0A006C656473746174653A20008F
:1008C6006368616E67653A2000666C61673A20006E
:1008D6002D2D2D2D2D2D2D2D2D2D2D2D2D2D2D2D42
:1008E6002D2D2D2D2D2D2D2D2D2D2D2D2D2D2D2D32
:0608F6002D2D2D2D000048
:00000001FF
